{
  "_format": "hh-sol-artifact-1",
  "contractName": "EvidenceLocker",
  "sourceName": "contracts/EvidenceLocker.sol",
  "abi": [
    {
      "inputs": [
        {
          "internalType": "string",
          "name": "reportId",
          "type": "string"
        },
        {
          "internalType": "bytes32",
          "name": "cidHash",
          "type": "bytes32"
        }
      ],
      "name": "anchorEvidence",
      "outputs": [],
      "stateMutability": "nonpayable",
      "type": "function"
    },
    {
      "inputs": [
        {
          "internalType": "string",
          "name": "",
          "type": "string"
        },
        {
          "internalType": "uint256",
          "name": "",
          "type": "uint256"
        }
      ],
      "name": "evidenceByReport",
      "outputs": [
        {
          "internalType": "bytes32",
          "name": "ipfsCidHash",
          "type": "bytes32"
        },
        {
          "internalType": "uint256",
          "name": "timestamp",
          "type": "uint256"
        },
        {
          "internalType": "string",
          "name": "reportId",
          "type": "string"
        }
      ],
      "stateMutability": "view",
      "type": "function"
    },
    {
      "inputs": [
        {
          "internalType": "string",
          "name": "reportId",
          "type": "string"
        }
      ],
      "name": "getEvidenceCount",
      "outputs": [
        {
          "internalType": "uint256",
          "name": "",
          "type": "uint256"
        }
      ],
      "stateMutability": "view",
      "type": "function"
    },
    {
      "inputs": [
        {
          "internalType": "bytes32",
          "name": "",
          "type": "bytes32"
        }
      ],
      "name": "hashAnchored",
      "outputs": [
        {
          "internalType": "bool",
          "name": "",
          "type": "bool"
        }
      ],
      "stateMutability": "view",
      "type": "function"
    },
    {
      "inputs": [
        {
          "internalType": "bytes32",
          "name": "cidHash",
          "type": "bytes32"
        }
      ],
      "name": "verifyEvidence",
      "outputs": [
        {
          "internalType": "bool",
          "name": "",
          "type": "bool"
        }
      ],
      "stateMutability": "view",
      "type": "function"
    }
  ],
  "bytecode": "0x608060405234801561001057600080fd5b50610ba4806100206000396000f3fe608060405234801561001057600080fd5b50600436106100575760003560e01c8063646986fb1461005c57806364e00c6f1461008c578063826ff860146100a85780639136d41e146100d8578063dc3be37114610108575b600080fd5b6100766004803603810190610071919061050b565b61013a565b604051610083919061056d565b60405180910390f35b6100a660048036038101906100a191906105be565b610164565b005b6100c260048036038101906100bd919061061a565b610282565b6040516100cf9190610662565b60405180910390f35b6100f260048036038101906100ed919061061a565b6102a2565b6040516100ff9190610662565b60405180910390f35b610122600480360381019061011d91906106a9565b6102cc565b60405161013193929190610793565b60405180910390f35b6000808260405161014b919061080d565b9081526020016040518091039020805490509050919050565b6001600082815260200190815260200160002060009054906101000a900460ff16156101c5576040517f08c379a00000000000000000000000000000000000000000000000000000000081526004016101bc90610870565b60405180910390fd5b6000826040516101d5919061080d565b90815260200160405180910390206040518060600160405280838152602001428152602001848152509080600181540180825580915050600190039060005260206000209060030201600090919091909150600082015181600001556020820151816001015560408201518160020190816102509190610a9c565b505050600180600083815260200190815260200160002060006101000a81548160ff0219169083151502179055505050565b60016020528060005260406000206000915054906101000a900460ff1681565b60006001600083815260200190815260200160002060009054906101000a900460ff169050919050565b60008280516020810182018051848252602083016020850120818352809550505050505081815481106102fe57600080fd5b90600052602060002090600302016000915091505080600001549080600101549080600201805461032e906108bf565b80601f016020809104026020016040519081016040528092919081815260200182805461035a906108bf565b80156103a75780601f1061037c576101008083540402835291602001916103a7565b820191906000526020600020905b81548152906001019060200180831161038a57829003601f168201915b5050505050905083565b6000604051905090565b600080fd5b600080fd5b600080fd5b600080fd5b6000601f19601f8301169050919050565b7f4e487b7100000000000000000000000000000000000000000000000000000000600052604160045260246000fd5b610418826103cf565b810181811067ffffffffffffffff82111715610437576104366103e0565b5b80604052505050565b600061044a6103b1565b9050610456828261040f565b919050565b600067ffffffffffffffff821115610476576104756103e0565b5b61047f826103cf565b9050602081019050919050565b82818337600083830152505050565b60006104ae6104a98461045b565b610440565b9050828152602081018484840111156104ca576104c96103ca565b5b6104d584828561048c565b509392505050565b600082601f8301126104f2576104f16103c5565b5b813561050284826020860161049b565b91505092915050565b600060208284031215610521576105206103bb565b5b600082013567ffffffffffffffff81111561053f5761053e6103c0565b5b61054b848285016104dd565b91505092915050565b6000819050919050565b61056781610554565b82525050565b6000602082019050610582600083018461055e565b92915050565b6000819050919050565b61059b81610588565b81146105a657600080fd5b50565b6000813590506105b881610592565b92915050565b600080604083850312156105d5576105d46103bb565b5b600083013567ffffffffffffffff8111156105f3576105f26103c0565b5b6105ff858286016104dd565b9250506020610610858286016105a9565b9150509250929050565b6000602082840312156106305761062f6103bb565b5b600061063e848285016105a9565b91505092915050565b60008115159050919050565b61065c81610647565b82525050565b60006020820190506106776000830184610653565b92915050565b61068681610554565b811461069157600080fd5b50565b6000813590506106a38161067d565b92915050565b600080604083850312156106c0576106bf6103bb565b5b600083013567ffffffffffffffff8111156106de576106dd6103c0565b5b6106ea858286016104dd565b92505060206106fb85828601610694565b9150509250929050565b61070e81610588565b82525050565b600081519050919050565b600082825260208201905092915050565b60005b8381101561074e578082015181840152602081019050610733565b60008484015250505050565b600061076582610714565b61076f818561071f565b935061077f818560208601610730565b610788816103cf565b840191505092915050565b60006060820190506107a86000830186610705565b6107b5602083018561055e565b81810360408301526107c7818461075a565b9050949350505050565b600081905092915050565b60006107e782610714565b6107f181856107d1565b9350610801818560208601610730565b80840191505092915050565b600061081982846107dc565b915081905092915050565b7f416c726561647920616e63686f72656400000000000000000000000000000000600082015250565b600061085a60108361071f565b915061086582610824565b602082019050919050565b600060208201905081810360008301526108898161084d565b9050919050565b7f4e487b7100000000000000000000000000000000000000000000000000000000600052602260045260246000fd5b600060028204905060018216806108d757607f821691505b6020821081036108ea576108e9610890565b5b50919050565b60008190508160005260206000209050919050565b60006020601f8301049050919050565b600082821b905092915050565b6000600883026109527fffffffffffffffffffffffffffffffffffffffffffffffffffffffffffffffff82610915565b61095c8683610915565b95508019841693508086168417925050509392505050565b6000819050919050565b600061099961099461098f84610554565b610974565b610554565b9050919050565b6000819050919050565b6109b38361097e565b6109c76109bf826109a0565b848454610922565b825550505050565b600090565b6109dc6109cf565b6109e78184846109aa565b505050565b5b81811015610a0b57610a006000826109d4565b6001810190506109ed565b5050565b601f821115610a5057610a21816108f0565b610a2a84610905565b81016020851015610a39578190505b610a4d610a4585610905565b8301826109ec565b50505b505050565b600082821c905092915050565b6000610a7360001984600802610a55565b1980831691505092915050565b6000610a8c8383610a62565b9150826002028217905092915050565b610aa582610714565b67ffffffffffffffff811115610abe57610abd6103e0565b5b610ac882546108bf565b610ad3828285610a0f565b600060209050601f831160018114610b065760008415610af4578287015190505b610afe8582610a80565b865550610b66565b601f198416610b14866108f0565b60005b82811015610b3c57848901518255600182019150602085019450602081019050610b17565b86831015610b595784890151610b55601f891682610a62565b8355505b6001600288020188555050505b50505050505056fea264697066735822122058935905624a83cd4206a9d66a0ccbbdc6bcb754e9920ade71ae64de035a77cb64736f6c63430008130033",
  "linkReferences": {},
  "deployedLinkReferences": {}
}